:020000040800F2
:10000000002000201D0300086D0300086D03000898
:1000100000000000000000000000000000000000E0
:100020000000000000000000000000006D03000858
:1000300000000000000000006D030008DD01000862
:100040006D0300086D0300086D0300086D030008D0
:100050006D0300086D0300086D0300086D030008C0
:100060006D0300086D0300086D0300086D030008B0
:100070006D0300086D0300086D0300086D030008A0
:100080006D0300086D030008000000006D03000808
:100090006D0300086D0300086D0300086D03000880
:1000A0006D0300086D0300086D0300086D03000870
:1000B0006D030008000000006D0300080000000050
:0400C0005FF808F1EC
:1000C400002243088B4274D303098B425FD3030A93
:1000D4008B4244D3030B8B4228D3030C8B420DD3A6
:1000E400FF22090212BA030C8B4202D31212090234
:1000F40065D0030B8B4219D300E0090AC30B8B4272
:1001040001D3CB03C01A5241830B8B4201D38B031F
:10011400C01A5241430B8B4201D34B03C01A5241C4
:10012400030B8B4201D30B03C01A5241C30A8B4207
:1001340001D3CB02C01A5241830A8B4201D38B02F2
:10014400C01A5241430A8B4201D34B02C01A524196
:10015400030A8B4201D30B02C01A5241CDD2C30908
:100164008B4201D3CB01C01A524183098B4201D384
:100174008B01C01A524143098B4201D34B01C01A6F
:10018400524103098B4201D30B01C01A5241C308E7
:100194008B4201D3CB00C01A524183088B4201D356
:1001A4008B00C01A524143088B4201D34B00C01A42
:1001B4005241411A00D20146524110467047FFE7AE
:1001C40001B5002000F006F802BDC0460029F7D0B2
:1001D40076E770477047C046074A1388642B02D0FD
:1001E4000133138007E0002380211380034A490070
:1001F400938A4B4093827047040000200008004813
:100204008021114A0903536910B50B4353618022BD
:100214000E4B52021A600E4B64211868FFF750FF10
:100224000C4B98420ED80C4A01385060C0200B4940
:1002340000060B6A1B021B0A03430B620023936034
:1002440007331360FEE7C046001002400008004870
:1002540000000020FFFFFF0010E000E000ED00E0E0
:1002640013B501200F24254B1A6802431A605968FC
:10027400234A0A405A601968224A0A401A601968D7
:10028400214A0A401A605968204A11405960D96AC3
:10029400A143D9621C6B1E4921401963596B8143E8
:1002A400596300219960009101911A491030086046
:1002B400596859605968596059680A40A0215A60C0
:1002C4005A6889030A4380215A601A6849040A4318
:1002D40080211A6089041868084A0842FBD0032068
:1002E40051688143516051680138014351600C21C8
:1002F4005A680A40082AFBD113BDC04600100240C8
:100304000CB8FFF8FFFFF6FEFFFFFBFFFFFFC0FF87
:10031400ACFEFFFF002002400D488546002103E0AB
:100324000C4B5B58435004310B480C4B42189A4217
:10033400F6D30B4A02E0002313600432094B9A42BD
:10034400F9D3FFF78DFF00F011F8FFF759FFFEE72F
:1003540000200020D003000800000020040000203A
:100364000400002008000020FEE7000070B50D4ED8
:100374000D4D0024AD1BAD1005D0A300F35801347E
:100384009847A542F9D100F015F8084E084D00240D
:10039400AD1BAD1005D0A300F35801349847A54216
:1003A400F9D170BD00000000000000000000000052
:1003B40000000000F8B5C046F8BC08BC9E46704773
:0C03C400F8B5C046F8BC08BC9E46704767
:0403D000006CDC02DF
:040000050800031DCF
:00000001FF
